:100000000C944A000C9469000C9469000C946900EB
:100010000C9469000C9469000C9469000C946900BC
:100020000C9469000C9469000C9469000C946900AC
:100030000C9469000C9469000C9469000C9469009C
:100040000C9469000C946B000C94B7010C9469003B
:100050000C9469000C9484040C94B4040C9469000E
:100060000C9469000C9469000C9469000C9469006C
:100070000C9469000C9469000C9469000C9469005C
:100080000C9467050C9497050C9469000C94690016
:100090000C94690011241FBECFEFD0E1DEBFCDBFAD
:1000A00011E0A0E0B1E0E8E9FCE000E00BBF02C035
:1000B00007900D92A831B107D9F711E0A8E1B1E09E
:1000C00001C01D92A43BB107E1F70E9485000C948A
:1000D0004A060C9400001F920F920FB60F92112443
:1000E0008F939F9314BC16BC109228011092180194
:1000F00088E191E090932701809326019F918F9151
:100100000F900FBE0F901F9018956F927F928F9255
:100110009F92AF92BF92CF92DF92EF92FF920F9396
:100120001F93DF93CF93CDB7DEB72D970FB6F8941B
:10013000DEBF0FBECDBF88E191E090932701809391
:100140002601109218011092280183E00E942704D2
:100150000E949A0181E090E00E94C50581E08093B1
:100160006E00789480E064E00E941F0325E0622E18
:1001700098E1892E91E0992E86E0A82EB12CAC0E44
:10018000BD1E6E010894C11CD11C77247A940E9474
:10019000DF059C0190FD61C08A3A910529F08091AC
:1001A0002801882309F459C064BC80912801882360
:1001B00049F0E0912601F09127012193F093270166
:1001C000E0932601809128018F5F80932801809120
:1001D00028018E3009F041C014BC16BC80E090E0CC
:1001E00000E010E0F801E85EFE4F60810E943901F6
:1001F0000F5F1F4F0E301105A9F7892B31F5509174
:1002000018019091190140911A01D50123E030E0C5
:1002100007C0F901E85EFE4F80818D932F5F3F4F4D
:10022000822F83508417A8F34D83F52EEE24892F57
:1002300090E08E299F299A83898381E0B6010E94EC
:10024000ED0381E062E00E941F03109228011092EA
:10025000180190922701809226018091B3018F3F6F
:1002600009F495CF8091B3010E944E017092B301C1
:100270008ECF9C0140E0E9E9F5EC862F90E08227E3
:1002800093273695279580FF02C02E273F274F5F83
:10029000483011F06695F1CFC9010895EF92FF92B1
:1002A0000F931F93DF93CF93CDB7DEB76C970FB645
:1002B000F894DEBF0FBECDBF8E010F5F1F4FB80198
:1002C0000E94CB038AEA8E878F87888B898B9981DE
:1002D0008A818A8B9B8B8D818C8BFE013696DE0109
:1002E0005596282F30E02B5F3F4F200F311F02C063
:1002F00081918D93E217F307D9F78E01025F1F4FAB
:100300008DE1E82EF12CEC0EFD1EF80181918F019C
:100310000E94FC050E151F05C1F76C960FB6F894E8
:10032000DEBF0FBECDBFCF91DF911F910F91FF9028
:10033000EF900895DF93CF93CDB7DEB72D970FB62B
:10034000F894DEBF0FBECDBF1A8219821C821B82B9
:1003500080E0BE016F5F7F4F0E94ED032D960FB6C8
:10036000F894DEBF0FBECDBFCF91DF9108951F92ED
:100370000F920FB60F9211242F933F938F939F9359
:100380003FB7F8942091ED008091EC00807F803F92
:1003900009F459C08091EC00807F8093ED0090912A
:1003A000EC008091EE0087FF05C08091EE008F7712
:1003B0008093EE008091EE0086FF05C08091EE00F4
:1003C0008F7B8093EE008091EE0085FF0EC08091C0
:1003D000EE008F7D8093EE0092959F709093B30115
:1003E0008091EF0080688093EF008091EE0084FFA1
:1003F00005C08091EE008F7E8093EE008091EE002C
:1004000083FF05C08091EE00877F8093EE0080918E
:10041000EE0082FF05C08091EE008B7F8093EE009E
:100420008091EE0081FF05C08091EE008D7F80936A
:10043000EE008091EE0080FF45C08091EE008E7F3F
:100440008093EE003FC08091DA0086FF05C0809166
:10045000DA0080648093DA008091DA0085FF05C0BD
:100460008091DA0080628093DA008091DA0084FF64
:1004700005C08091DA0080618093DA008091DA0013
:1004800083FF05C08091DA0088608093DA00809154
:10049000DA0082FF05C08091DA0084608093DA0080
:1004A0008091DA0081FF05C08091DA00826080933C
:1004B000DA008091DA0080FF05C08091DA00816067
:1004C0008093DA002093ED003FBF9F918F913F9181
:1004D0002F910F900FBE0F901F9018958F3020F422
:1004E0008295807F8093ED000895382F883068F4DE
:1004F0002091DE0081E090E002C0880F991F3A95BC
:10050000E2F7282B2093DE0008954091DF00282F8A
:1005100030E02850304081E090E002C0880F991F01
:100520002A95E2F7482B4093DF000895382F883052
:1005300070F42091DE0081E090E002C0880F991FE6
:100540003A95E2F7809582238093DE0008954091EA
:10055000DF00282F30E02850304081E090E002C0DA
:10056000880F991F2A95E2F7809584238093DF00F6
:1005700008951092F0001092F100282F2295220F7A
:10058000207E2093F20023E0969587952A95E1F747
:100590008093F300EFEEF0E080818F7E80830895FA
:1005A0008091F20082958695877090E02091F3000B
:1005B00030E043E0220F331F4A95E1F7282B392B17
:1005C000C901089521E02093F4001092F500282F2E
:1005D0002295220F207E2093F60053E09695879572
:1005E0005A95E1F78093F7000895EFEEF0E010825E
:1005F0009081982B908308958091EF008F700895DB
:10060000482F1092EF008091EF00842B8093EF0031
:10061000FB0190E004C081918093FA009F5F9417E2
:10062000D0F308950E946E02E0EFF0E080818460D4
:100630008083EFEEF0E080818062808308951F93D5
:10064000162F0E946E02153009F449C0163060F46E
:10065000123019F1133018F4113091F413C0133023
:1006600051F1143069F437C0173009F45BC017300A
:1006700008F445C0183009F46DC0193009F46AC097
:1006800080E087C01092EF008091F0008B7F809314
:10069000F0008091F4008B7F79C08091EF008F7320
:1006A0008093EF008091F0008B7F8093F000809129
:1006B000EF008F7D08C08091F00084608093F0008F
:1006C0008091EF008F738093EF008091EF00806442
:1006D0008093EF005DC01092F7001092F6008091B9
:1006E000F40081608093F4008091F0008B7F809310
:1006F000F0008091EF008F738093EF0027C080910E
:10070000EF008F738093EF008091F40084608093FA
:10071000F4008091F00084608093F0008091EF00FD
:100720008F7D0DC08091EF008F738093EF008091DB
:10073000F40084608093F4008091EF0080628093E5
:10074000EF008091F40081608093F4008091EF00CD
:100750008068BECF8091EF008F738093EF0080910F
:10076000EF0080688093EF008091EF0080628093BB
:10077000EF008091F00084608093F0008091F4009D
:1007800084608093F4008091F40081608093F40091
:1007900081E01F910895CF93DF93EB010E946E02D9
:1007A0000E94D002998388830E94FC028C83FE0100
:1007B00080E015828F5F31968830D9F790E007C0CE
:1007C0008091FA00FE01E90FF11D85839F5F8C8106
:1007D0009817B0F3DF91CF9108951F93CF93DF93D4
:1007E000182FEB01883060F48091DC0090E0012E3E
:1007F00002C0959587950A94E2F780FF0DC022C04C
:100800002091DD0030E090E0089702C035952795F3
:100810008A95E2F720FD16C0812F0E946E02BE016C
:100820006B5F7F4F8C810E940003888199810E94B9
:10083000B9028A819B810E94E202812F0E94750287
:1008400081E001C080E0DF91CF911F9108950F9367
:100850001F93082F8FEF8093B301083010F080E0D2
:1008600050C08091D80081608093D8001092E00041
:100870001092E1001092DA001092DB001092DD007D
:100880001092DC001092DF001092DE0010E0812F49
:100890000E946E021092F3001092F2001092F1008A
:1008A0001092F0001092F7001092F6001092F500EE
:1008B0001092F400812F0E9496021092EE00109286
:1008C000EF001F5F1F3019F7802F90E0FC01EE0F43
:1008D000FF1FE80FF91FE050FF4F80818093E20077
:1008E00081818093E30082818093E40080EB809398
:1008F000DB0082E08093D8008091D90082FFFCCF9A
:1009000081E01F910F9108951F920F920FB60F92E1
:100910000BB60F9211242F938F939F93EF93FF9316
:100920009091C0002091C600E0916B01EF5FEF71E4
:1009300080916C01E81711F482E008C0892F88715A
:10094000E0936B01F0E0E75BFE4F208380936D0145
:10095000FF91EF919F918F912F910F900BBE0F9070
:100960000FBE0F901F9018951F920F920FB60F9207
:100970000BB60F9211248F939F93EF93FF93909157
:10098000690180916A01981769F0E0916A01EF5F4F
:10099000EF71E0936A01F0E0E75DFE4F80818093A4
:1009A000C60005C08091C1008F7D8093C100FF917A
:1009B000EF919F918F910F900BBE0F900FBE0F90F4
:1009C0001F9018959C011092690110926A01109273
:1009D0006B0110926C0197FF04C082E08093C0000D
:1009E0003F773093C5002093C40088E98093C1000D
:1009F00086E08093C200089590916B0180916C0114
:100A0000981719F420E031E012C0E0916C01EF5F1B
:100A1000EF71E0936C01F0E0E75BFE4F30812091D5
:100A20006D01922F80E0AC01430F511D9A01C90165
:100A30000895282F909169019F5F9F7180916A01AD
:100A40009817E1F3E92FF0E0E75DFE4F20839093E4
:100A500069018091C10080628093C1000895DC012A
:100A600015C0909169019F5F9F7180916A019817ED
:100A7000E1F31196E92FF0E0E75DFE4F20839093BC
:100A800069018091C10080628093C1002C91222372
:100A900041F70895AC0114C0209169012F5F2F71B7
:100AA00080916A012817E1F3E22FF0E0E75DFE4F45
:100AB0009083209369018091C10080628093C1007E
:100AC000FA014F5F5F4F9491992331F708951F9278
:100AD0000F920FB60F920BB60F9211242F938F9394
:100AE0009F93EF93FF939091C8002091CE00E091E7
:100AF000B001EF5FEF718091B101E81711F482E06E
:100B000008C0892F8871E093B001F0E0E257FE4FF2
:100B100020838093B201FF91EF919F918F912F914C
:100B20000F900BBE0F900FBE0F901F9018951F9245
:100B30000F920FB60F920BB60F9211248F939F93C3
:100B4000EF93FF939091AE018091AF01981769F0F8
:100B5000E091AF01EF5FEF71E093AF01F0E0E25998
:100B6000FE4F80818093CE0005C08091C9008F7DAB
:100B70008093C900FF91EF919F918F910F900BBED1
:100B80000F900FBE0F901F9018959C011092AE0110
:100B90001092AF011092B0011092B10197FF04C002
:100BA00082E08093C8003F773093CD002093CC0043
:100BB00088E98093C90086E08093CA0008959091E7
:100BC000B0018091B101981719F420E031E012C012
:100BD000E091B101EF5FEF71E093B101F0E0E25716
:100BE000FE4F30812091B201922F80E0AC01430F83
:100BF000511D9A01C9010895282F9091AE019F5F60
:100C00009F718091AF019817E1F3E92FF0E0E2596D
:100C1000FE4F20839093AE018091C9008062809343
:100C2000C9000895DC0115C09091AE019F5F9F71CE
:100C30008091AF019817E1F31196E92FF0E0E259A6
:100C4000FE4F20839093AE018091C9008062809313
:100C5000C9002C91222341F70895AC0114C02091C2
:100C6000AE012F5F2F718091AF012817E1F3E22FC2
:100C7000F0E0E259FE4F90832093AE018091C900CD
:100C800080628093C900FA014F5F5F4F949199236E
:080C900031F70895F894FFCF3D
:100C98007E6E7F620C37260C37120C370E0C370627
:080CA8000C37020C37000C3779
:00000001FF
